{
  "address": "0x9d91D42BDF172837EE788d8f0754e01F0efEcDb9",
  "abi": [
    {
      "inputs": [
        {
          "internalType": "address",
          "name": "_wETH",
          "type": "address"
        }
      ],
      "stateMutability": "nonpayable",
      "type": "constructor"
    },
    {
      "anonymous": false,
      "inputs": [
        {
          "indexed": true,
          "internalType": "address",
          "name": "previousOwner",
          "type": "address"
        },
        {
          "indexed": true,
          "internalType": "address",
          "name": "newOwner",
          "type": "address"
        }
      ],
      "name": "OwnershipTransferred",
      "type": "event"
    },
    {
      "stateMutability": "payable",
      "type": "fallback"
    },
    {
      "inputs": [],
      "name": "owner",
      "outputs": [
        {
          "internalType": "address",
          "name": "",
          "type": "address"
        }
      ],
      "stateMutability": "view",
      "type": "function"
    },
    {
      "inputs": [],
      "name": "renounceOwnership",
      "outputs": [],
      "stateMutability": "nonpayable",
      "type": "function"
    },
    {
      "inputs": [
        {
          "internalType": "address",
          "name": "tokenAddress",
          "type": "address"
        },
        {
          "internalType": "address",
          "name": "targetAddress",
          "type": "address"
        },
        {
          "internalType": "uint256",
          "name": "amount",
          "type": "uint256"
        }
      ],
      "name": "transferERC20",
      "outputs": [],
      "stateMutability": "nonpayable",
      "type": "function"
    },
    {
      "inputs": [
        {
          "internalType": "address payable",
          "name": "targetAddress",
          "type": "address"
        },
        {
          "internalType": "uint256",
          "name": "amount",
          "type": "uint256"
        }
      ],
      "name": "transferETH",
      "outputs": [],
      "stateMutability": "nonpayable",
      "type": "function"
    },
    {
      "inputs": [
        {
          "internalType": "address",
          "name": "newOwner",
          "type": "address"
        }
      ],
      "name": "transferOwnership",
      "outputs": [],
      "stateMutability": "nonpayable",
      "type": "function"
    },
    {
      "inputs": [],
      "name": "wETH",
      "outputs": [
        {
          "internalType": "contract IWETH9",
          "name": "",
          "type": "address"
        }
      ],
      "stateMutability": "view",
      "type": "function"
    },
    {
      "stateMutability": "payable",
      "type": "receive"
    }
  ],
  "transactionHash": "0x24c41c5f88f30baacf52bba65c9d8aa405148865417c144bea06b4b46ab66e53",
  "args": [
    "0xfFf9976782d46CC05630D1f6eBAb18b2324d6B14"
  ],
  "numDeployments": 1,
  "solcInputHash": "c9dc6dcd551afc4379a0f6b9d3fc8620",
  "bytecode": "0x60a060405234801561001057600080fd5b50604051610bd6380380610bd6833981810160405281019061003291906101b7565b61004e61004361008860201b60201c565b61009060201b60201c565b8073ffffffffffffffffffffffffffffffffffffffff1660808173ffffffffffffffffffffffffffffffffffffffff1681525050506101e4565b600033905090565b60008060009054906101000a900473ffffffffffffffffffffffffffffffffffffffff169050816000806101000a81548173ffffffffffffffffffffffffffffffffffffffff021916908373ffffffffffffffffffffffffffffffffffffffff1602179055508173ffffffffffffffffffffffffffffffffffffffff168173ffffffffffffffffffffffffffffffffffffffff167f8be0079c531659141344cd1fd0a4f28419497f9722a3daafe3b4186f6b6457e060405160405180910390a35050565b600080fd5b600073ffffffffffffffffffffffffffffffffffffffff82169050919050565b600061018482610159565b9050919050565b61019481610179565b811461019f57600080fd5b50565b6000815190506101b18161018b565b92915050565b6000602082840312156101cd576101cc610154565b5b60006101db848285016101a2565b91505092915050565b6080516109d061020660003960008181610168015261033d01526109d06000f3fe6080604052600436106100595760003560e01c8063715018a6146100625780637b1a4909146100795780638da5cb5b146100a25780639db5dbe4146100cd578063f2428621146100f6578063f2fde38b1461012157610060565b3661006057005b005b34801561006e57600080fd5b5061007761014a565b005b34801561008557600080fd5b506100a0600480360381019061009b91906105c5565b61015e565b005b3480156100ae57600080fd5b506100b761023c565b6040516100c49190610626565b60405180910390f35b3480156100d957600080fd5b506100f460048036038101906100ef919061066d565b610265565b005b34801561010257600080fd5b5061010b61033b565b604051610118919061071f565b60405180910390f35b34801561012d57600080fd5b506101486004803603810190610143919061073a565b61035f565b005b6101526103e2565b61015c6000610460565b565b6101666103e2565b7f000000000000000000000000000000000000000000000000000000000000000073ffffffffffffffffffffffffffffffffffffffff16632e1a7d4d826040518263ffffffff1660e01b81526004016101bf9190610776565b600060405180830381600087803b1580156101d957600080fd5b505af11580156101ed573d6000803e3d6000fd5b505050508173ffffffffffffffffffffffffffffffffffffffff166108fc829081150290604051600060405180830381858888f19350505050158015610237573d6000803e3d6000fd5b505050565b60008060009054906101000a900473ffffffffffffffffffffffffffffffffffffffff16905090565b61026d6103e2565b600083905060008173ffffffffffffffffffffffffffffffffffffffff1663a9059cbb85856040518363ffffffff1660e01b81526004016102af929190610791565b6020604051808303816000875af11580156102ce573d6000803e3d6000fd5b505050506040513d601f19601f820116820180604052508101906102f291906107f2565b905080610334576040517f08c379a000000000000000000000000000000000000000000000000000000000815260040161032b9061087c565b60405180910390fd5b5050505050565b7f000000000000000000000000000000000000000000000000000000000000000081565b6103676103e2565b600073ffffffffffffffffffffffffffffffffffffffff168173ffffffffffffffffffffffffffffffffffffffff16036103d6576040517f08c379a00000000000000000000000000000000000000000000000000000000081526004016103cd9061090e565b60405180910390fd5b6103df81610460565b50565b6103ea610524565b73ffffffffffffffffffffffffffffffffffffffff1661040861023c565b73ffffffffffffffffffffffffffffffffffffffff161461045e576040517f08c379a00000000000000000000000000000000000000000000000000000000081526004016104559061097a565b60405180910390fd5b565b60008060009054906101000a900473ffffffffffffffffffffffffffffffffffffffff169050816000806101000a81548173ffffffffffffffffffffffffffffffffffffffff021916908373ffffffffffffffffffffffffffffffffffffffff1602179055508173ffffffffffffffffffffffffffffffffffffffff168173ffffffffffffffffffffffffffffffffffffffff167f8be0079c531659141344cd1fd0a4f28419497f9722a3daafe3b4186f6b6457e060405160405180910390a35050565b600033905090565b600080fd5b600073ffffffffffffffffffffffffffffffffffffffff82169050919050565b600061055c82610531565b9050919050565b61056c81610551565b811461057757600080fd5b50565b60008135905061058981610563565b92915050565b6000819050919050565b6105a28161058f565b81146105ad57600080fd5b50565b6000813590506105bf81610599565b92915050565b600080604083850312156105dc576105db61052c565b5b60006105ea8582860161057a565b92505060206105fb858286016105b0565b9150509250929050565b600061061082610531565b9050919050565b61062081610605565b82525050565b600060208201905061063b6000830184610617565b92915050565b61064a81610605565b811461065557600080fd5b50565b60008135905061066781610641565b92915050565b6000806000606084860312156106865761068561052c565b5b600061069486828701610658565b93505060206106a586828701610658565b92505060406106b6868287016105b0565b9150509250925092565b6000819050919050565b60006106e56106e06106db84610531565b6106c0565b610531565b9050919050565b60006106f7826106ca565b9050919050565b6000610709826106ec565b9050919050565b610719816106fe565b82525050565b60006020820190506107346000830184610710565b92915050565b6000602082840312156107505761074f61052c565b5b600061075e84828501610658565b91505092915050565b6107708161058f565b82525050565b600060208201905061078b6000830184610767565b92915050565b60006040820190506107a66000830185610617565b6107b36020830184610767565b9392505050565b60008115159050919050565b6107cf816107ba565b81146107da57600080fd5b50565b6000815190506107ec816107c6565b92915050565b6000602082840312156108085761080761052c565b5b6000610816848285016107dd565b91505092915050565b600082825260208201905092915050565b7f4272696467655661756c743a205472616e73666572206661696c656400000000600082015250565b6000610866601c8361081f565b915061087182610830565b602082019050919050565b6000602082019050818103600083015261089581610859565b9050919050565b7f4f776e61626c653a206e6577206f776e657220697320746865207a65726f206160008201527f6464726573730000000000000000000000000000000000000000000000000000602082015250565b60006108f860268361081f565b91506109038261089c565b604082019050919050565b60006020820190508181036000830152610927816108eb565b9050919050565b7f4f776e61626c653a2063616c6c6572206973206e6f7420746865206f776e6572600082015250565b600061096460208361081f565b915061096f8261092e565b602082019050919050565b6000602082019050818103600083015261099381610957565b905091905056fea2646970667358221220225dac5c6d0d6d97c0e38d1fee7023adde1ba1dc9e82379900d454921308927a64736f6c634300080f0033",
  "devdoc": {
    "kind": "dev",
    "methods": {
      "owner()": {
        "details": "Returns the address of the current owner."
      },
      "renounceOwnership()": {
        "details": "Leaves the contract without owner. It will not be possible to call `onlyOwner` functions anymore. Can only be called by the current owner. NOTE: Renouncing ownership will leave the contract without an owner, thereby removing any functionality that is only available to the owner."
      },
      "transferOwnership(address)": {
        "details": "Transfers ownership of the contract to a new account (`newOwner`). Can only be called by the current owner."
      }
    },
    "version": 1
  },
  "userdoc": {
    "kind": "user",
    "methods": {},
    "version": 1
  },
  "storageLayout": {
    "storage": [
      {
        "astId": 3497,
        "contract": "contracts/BridgeVault.sol:BridgeVault",
        "label": "_owner",
        "offset": 0,
        "slot": "0",
        "type": "t_address"
      }
    ],
    "types": {
      "t_address": {
        "encoding": "inplace",
        "label": "address",
        "numberOfBytes": "20"
      }
    }
  }
}